:100000000C9462000C948A000C948A000C948A0070
:100010000C9418040C948A000C948A000C948A00A6
:100020000C948A000C948A000C948A000C948A0028
:100030000C948A000C948A000C948A000C948A0018
:100040000C9476030C948A000C94E6030C94C00381
:100050000C948A000C948A000C948A000C948A00F8
:100060000C948A000C948A000000000024002700F1
:100070002A0000000000250028002B0000000000DE
:1000800023002600290004040404040404040202DA
:100090000202020203030303030301020408102007
:1000A0004080010204081020010204081020000012
:1000B0000008000201000003040700000000000027
:1000C0000000A60511241FBECFEFD8E0DEBFCDBFD4
:1000D00011E0A0E0B1E0E4E0FCE002C005900D9288
:1000E000AC34B107D9F721E0ACE4B1E001C01D9216
:1000F000AA3FB207E1F710E0C2E6D0E004C02197C2
:10010000FE010E94F505C136D107C9F70E94BC0463
:100110000C9400060C940000833081F028F48130A8
:1001200099F08230A1F008958730A9F08830B9F0B5
:100130008430D1F4809180008F7D03C08091800055
:100140008F7780938000089584B58F7702C084B53F
:100150008F7D84BD08958091B0008F7703C080911A
:10016000B0008F7D8093B0000895CF93DF93282F48
:1001700030E0F901E255FF4F8491F901E656FF4F57
:10018000D491F901EA57FF4FC491CC2391F081112A
:100190000E948C00EC2FF0E0EE0FFF1FE458FF4FA1
:1001A000A591B491EC91ED2381E090E021F480E001
:1001B00002C080E090E0DF91CF9108951F93CF932C
:1001C000DF93282F30E0F901E255FF4F8491F901C8
:1001D000E656FF4FD491F901EA57FF4FC491CC2363
:1001E000C1F0162F81110E948C00EC2FF0E0EE0F71
:1001F000FF1FEE58FF4FA591B4919FB7F8941111CE
:1002000004C08C91D095D82302C0EC91DE2BDC93F6
:100210009FBFDF91CF911F9108958330910509F41D
:1002200055C0ACF48130910509F442C0029709F041
:100230005FC060E08BE00E94DE0060E08AE00E9428
:10024000DE0060E089E00E94DE0061E04CC08530A5
:100250009105C1F06CF0069709F04AC061E08BE0AF
:100260000E94DE0060E08AE00E94DE0060E013C0D1
:1002700060E08BE00E94DE0061E08AE00E94DE0028
:1002800061E03FC060E08BE00E94DE0060E08AE059
:100290000E94DE0061E089E00E94DE0060E086E00E
:1002A0000E94DE0060E085E00E94DE0061E035C073
:1002B00061E08BE00E94DE0060E08AE00E94DE00E8
:1002C00060E089E00E94DE0061E01FC060E08BE03A
:1002D0000E94DE0061E08AE00E94DE0060E089E0CA
:1002E0000E94DE0060E086E00E94DE0061E011C056
:1002F00060E08BE00E94DE0060E08AE00E94DE00A9
:1003000060E089E00E94DE0060E086E00E94DE009E
:1003100060E085E00E94DE0060E083E00C94DE0097
:10032000CF93DF9390E0FC01E656FF4F2491FC0150
:10033000EA57FF4F8491882361F190E0880F991F5D
:10034000FC01E859FF4FC591D491FC01EE58FF4FD5
:10035000A591B491611109C09FB7F8948881209547
:1003600082238883EC912E230BC0623061F49FB707
:10037000F8948881322F309583238883EC912E2B3B
:100380002C939FBF06C08FB7F894E8812E2B28834B
:100390008FBFDF91CF9108953FB7F89480915901B5
:1003A00090915A01A0915B01B0915C0126B5A89B88
:1003B00005C02F3F19F00196A11DB11D3FBFBA2FF7
:1003C000A92F982F8827820F911DA11DB11DBC0157
:1003D000CD0142E0660F771F881F991F4A95D1F71C
:1003E0000895CF92DF92EF92FF920F931F93CF93D6
:1003F000DF936C017A018B01C0E0D0E0CE15DF0500
:1004000081F0D8016D918D01D601ED91FC910190A3
:10041000F081E02DC6010995892B11F02196EECFD0
:100420007E01C701DF91CF911F910F91FF90EF9057
:10043000DF90CF900895089580E090E00895FC014A
:10044000538D448D252F30E0842F90E0821B930B39
:10045000541710F0CF96089501970895FC01918DDF
:10046000828D981761F0828DDF01A80FB11D5D9616
:100470008C91928D9F5F9F73928F90E008958FEF84
:100480009FEF0895FC01918D828D981731F0828D38
:10049000E80FF11D858D90E008958FEF9FEF08958F
:1004A000FC01918D228D892F90E0805C9F4F821BF3
:1004B00091098F73992708958DE591E00E9450026C
:1004C00021E0892B09F420E0822F0895FC01848D1E
:1004D000DF01A80FB11DA35ABF4F2C91848D90E06E
:1004E00001968F739927848FA689B7892C93A08949
:1004F000B1898C91837080648C93938D848D9813D3
:1005000006C00288F389E02D80818F7D8083089565
:10051000EF92FF920F931F93CF93DF93EC0181E053
:10052000888F9B8D8C8D981305C0E889F98980810F
:1005300085FD26C0F62E0B8D10E00F5F1F4F0F7349
:100540001127E02E8C8DE8120CC00FB607FCFACFF5
:10055000E889F989808185FFF5CFCE010E94660286
:10056000F1CF8B8DFE01E80FF11DE35AFF4FF082B2
:100570009FB7F8940B8FEA89FB89808180620AC05B
:100580009FB7F894EE89FF896083E889F9898081B3
:100590008370806480839FBF81E090E0DF91CF9182
:1005A0001F910F91FF90EF900895CF93DF93EC018F
:1005B000888D8823C9F0EA89FB89808185FD05C083
:1005C000A889B9898C9186FD0FC00FB607FCF5CFBD
:1005D000808185FFF2CFA889B9898C9185FFEDCF05
:1005E000CE010E946602E7CFDF91CF91089580E0AF
:1005F00090E0892B29F00E945C0281110C9400008C
:1006000008950F931F93CF93DF938EE00E94B50060
:100610008C0190935101809350018FE00E94B500AE
:10062000EC0190934F0180934E0180E10E94B50050
:100630000130110539F4209799F40097F9F486E018
:1006400090E009C0012B19F5C130D10581F4009764
:10065000C9F484E090E090934D0180934C011BC05D
:100660002197A9F4892B99F485E090E0F4CFCD2B64
:1006700071F4019761F482E090E0EDCF8130910553
:1006800031F4E9CF019719F483E090E0E4CF1092C0
:100690004D0110924C0180914C0190914D01DF91E0
:1006A000CF911F910F910895009769F0FC0101907F
:1006B0000020E9F73197AF01481B590BBC018DE5CC
:1006C00091E00C94F10180E090E00895CF93DF93E6
:1006D0000E945403EC0182E191E00E9454038C0FCC
:1006E0009D1FDF91CF9108950E94FB051F920F92ED
:1006F0000FB60F9211242F933F938F939F93AF9335
:10070000BF938091550190915601A0915701B091EE
:1007100058013091540123E0230F2D3720F4019626
:10072000A11DB11D05C026E8230F0296A11DB11D14
:10073000209354018093550190935601A093570143
:10074000B09358018091590190915A01A0915B0199
:10075000B0915C010196A11DB11D80935901909348
:100760005A01A0935B01B0935C01BF91AF919F913F
:100770008F913F912F910F900FBE0F901F90189562
:100780001F920F920FB60F9211242F933F934F9306
:100790005F936F937F938F939F93AF93BF93EF93E9
:1007A000FF938DE591E00E946602FF91EF91BF916A
:1007B000AF919F918F917F916F915F914F913F91F9
:1007C0002F910F900FBE0F901F9018951F920F92B0
:1007D0000FB60F9211242F938F939F93EF93FF9354
:1007E000E0916D01F0916E018081E0917301F091D3
:1007F000740182FD12C09081809176018F5F8F73AA
:1008000020917701821751F0E0917601F0E0E35AF0
:10081000FE4F958F8093760101C08081FF91EF910B
:100820009F918F912F910F900FBE0F901F90189551
:100830001F920F920FB60F9211248F929F92AF9238
:10084000BF92CF92DF92EF92FF922F933F934F93FD
:100850005F936F937F938F939F93AF93BF93EF9328
:10086000FF93CF93DF93CDB7DEB7A197DEBFCDBFA8
:10087000809168008D6F8093680081E491E00E9410
:1008800054030E9401036C01909353018093520121
:100890000E940D010D2C000CEE08FF08F7FE25C08C
:1008A0006DE28DE591E00E94880222273327A9019D
:1008B0002C193D094E095F0919A2CE0181967C01D0
:1008C0009AE0892E912CA12CB12CCA01B901A50165
:1008D00094010E94D305605DF70162937F012115A9
:1008E00031054105510589F71AC0A701960119A2E2
:1008F000CE0181967C018AE0882E912CA12CB12C0E
:10090000CA01B901A50194010E94D305605DF701F8
:1009100062937F01211531054105510589F7C70112
:100920000E94540382E191E00E9454038091680088
:10093000826080936800A1960FB6F894DEBF0FBE68
:10094000CDBFDF91CF91FF91EF91BF91AF919F917B
:100950008F917F916F915F914F913F912F91FF9078
:10096000EF90DF90CF90BF90AF909F908F900F90BF
:100970000FBE0F901F901895789484B5826084BD47
:1009800084B5816084BD85B5826085BD85B5816093
:1009900085BD80916E00816080936E001092810011
:1009A00080918100826080938100809181008160CC
:1009B000809381008091800081608093800080918D
:1009C000B10084608093B1008091B0008160809319
:1009D000B00080917A00846080937A0080917A00E0
:1009E000826080937A0080917A00816080937A009F
:1009F00080917A00806880937A001092C100E09123
:100A00006D01F0916E0182E08083E0916901F091C7
:100A10006A011082E0916B01F0916C018FEC808390
:100A200010927501E0917101F091720186E080836E
:100A3000E0916F01F0917001808180618083E0918D
:100A40006F01F0917001808188608083E0916F0177
:100A5000F0917001808180688083E0916F01F09156
:100A6000700180818F7D808385E191E00E94660323
:100A700061E08BE00E94900161E089E00E949001BA
:100A800061E085E00E94900161E08AE00E949001AF
:100A900061E086E00E94900161E083E00E949001A5
:100AA00060E08EE00E94900160E08FE00E94900183
:100AB00060E080E10E94900160E082E10E9490018C
:100AC0008BE191E00E9466030E9401039093530121
:100AD000809352010E940D010E94CC014B015C01E8
:100AE00082E3C82ED12CE12CF12C0E94CC01DC0138
:100AF000CB0188199909AA09BB09883E9340A10531
:100B0000B10598F321E0C21AD108E108F10888EE96
:100B1000880E83E0981EA11CB11CC114D104E1040D
:100B2000F10419F784E391E00E9466038FB78068AF
:100B30008FBF8091680082608093680080916C0014
:100B4000876080936C000E94F702FDCFEDE5F1E035
:100B50001382128288EE93E0A0E0B0E08483958354
:100B6000A683B78384E091E09183808385EC90E055
:100B70009587848784EC90E09787868780EC90E067
:100B8000918B808B81EC90E0938B828B82EC90E058
:100B9000958B848B86EC90E0978B868B118E128ED2
:100BA000138E148E0895A1E21A2EAA1BBB1BFD0101
:100BB0000DC0AA1FBB1FEE1FFF1FA217B307E4073C
:100BC000F50720F0A21BB30BE40BF50B661F771F94
:100BD000881F991F1A9469F7609570958095909574
:100BE0009B01AC01BD01CF010895EE0FFF1F0590E1
:100BF000F491E02D099481E090E0F8940C940006C3
:040C0000F894FFCF96
:100C0400000000008802F1011F02D50250022E02EA
:100C140042020D0A00737461727400737461727419
:100C2400696E672061667465722035207365636F31
:100C34006E6473007374617274696E67204E4F57EB
:0C0C4400002070696E20696E74200000B2
:00000001FF
